{
  "_format": "hh-sol-artifact-1",
  "contractName": "Marvel1155",
  "sourceName": "contracts/erc1155.sol",
  "abi": [
    {
      "inputs": [],
      "stateMutability": "nonpayable",
      "type": "constructor"
    },
    {
      "anonymous": false,
      "inputs": [
        {
          "indexed": true,
          "internalType": "address",
          "name": "account",
          "type": "address"
        },
        {
          "indexed": true,
          "internalType": "address",
          "name": "operator",
          "type": "address"
        },
        {
          "indexed": false,
          "internalType": "bool",
          "name": "approved",
          "type": "bool"
        }
      ],
      "name": "ApprovalForAll",
      "type": "event"
    },
    {
      "anonymous": false,
      "inputs": [
        {
          "indexed": false,
          "internalType": "address",
          "name": "account",
          "type": "address"
        }
      ],
      "name": "Paused",
      "type": "event"
    },
    {
      "anonymous": false,
      "inputs": [
        {
          "indexed": true,
          "internalType": "bytes32",
          "name": "role",
          "type": "bytes32"
        },
        {
          "indexed": true,
          "internalType": "bytes32",
          "name": "previousAdminRole",
          "type": "bytes32"
        },
        {
          "indexed": true,
          "internalType": "bytes32",
          "name": "newAdminRole",
          "type": "bytes32"
        }
      ],
      "name": "RoleAdminChanged",
      "type": "event"
    },
    {
      "anonymous": false,
      "inputs": [
        {
          "indexed": true,
          "internalType": "bytes32",
          "name": "role",
          "type": "bytes32"
        },
        {
          "indexed": true,
          "internalType": "address",
          "name": "account",
          "type": "address"
        },
        {
          "indexed": true,
          "internalType": "address",
          "name": "sender",
          "type": "address"
        }
      ],
      "name": "RoleGranted",
      "type": "event"
    },
    {
      "anonymous": false,
      "inputs": [
        {
          "indexed": true,
          "internalType": "bytes32",
          "name": "role",
          "type": "bytes32"
        },
        {
          "indexed": true,
          "internalType": "address",
          "name": "account",
          "type": "address"
        },
        {
          "indexed": true,
          "internalType": "address",
          "name": "sender",
          "type": "address"
        }
      ],
      "name": "RoleRevoked",
      "type": "event"
    },
    {
      "anonymous": false,
      "inputs": [
        {
          "indexed": true,
          "internalType": "address",
          "name": "operator",
          "type": "address"
        },
        {
          "indexed": true,
          "internalType": "address",
          "name": "from",
          "type": "address"
        },
        {
          "indexed": true,
          "internalType": "address",
          "name": "to",
          "type": "address"
        },
        {
          "indexed": false,
          "internalType": "uint256[]",
          "name": "ids",
          "type": "uint256[]"
        },
        {
          "indexed": false,
          "internalType": "uint256[]",
          "name": "values",
          "type": "uint256[]"
        }
      ],
      "name": "TransferBatch",
      "type": "event"
    },
    {
      "anonymous": false,
      "inputs": [
        {
          "indexed": true,
          "internalType": "address",
          "name": "operator",
          "type": "address"
        },
        {
          "indexed": true,
          "internalType": "address",
          "name": "from",
          "type": "address"
        },
        {
          "indexed": true,
          "internalType": "address",
          "name": "to",
          "type": "address"
        },
        {
          "indexed": false,
          "internalType": "uint256",
          "name": "id",
          "type": "uint256"
        },
        {
          "indexed": false,
          "internalType": "uint256",
          "name": "value",
          "type": "uint256"
        }
      ],
      "name": "TransferSingle",
      "type": "event"
    },
    {
      "anonymous": false,
      "inputs": [
        {
          "indexed": false,
          "internalType": "string",
          "name": "value",
          "type": "string"
        },
        {
          "indexed": true,
          "internalType": "uint256",
          "name": "id",
          "type": "uint256"
        }
      ],
      "name": "URI",
      "type": "event"
    },
    {
      "anonymous": false,
      "inputs": [
        {
          "indexed": false,
          "internalType": "address",
          "name": "account",
          "type": "address"
        }
      ],
      "name": "Unpaused",
      "type": "event"
    },
    {
      "inputs": [],
      "name": "CAPTAIN_AMERICA",
      "outputs": [
        {
          "internalType": "uint256",
          "name": "",
          "type": "uint256"
        }
      ],
      "stateMutability": "view",
      "type": "function"
    },
    {
      "inputs": [],
      "name": "DEFAULT_ADMIN_ROLE",
      "outputs": [
        {
          "internalType": "bytes32",
          "name": "",
          "type": "bytes32"
        }
      ],
      "stateMutability": "view",
      "type": "function"
    },
    {
      "inputs": [],
      "name": "IRON_MAN",
      "outputs": [
        {
          "internalType": "uint256",
          "name": "",
          "type": "uint256"
        }
      ],
      "stateMutability": "view",
      "type": "function"
    },
    {
      "inputs": [],
      "name": "MINTER_ROLE",
      "outputs": [
        {
          "internalType": "bytes32",
          "name": "",
          "type": "bytes32"
        }
      ],
      "stateMutability": "view",
      "type": "function"
    },
    {
      "inputs": [],
      "name": "PAUSER_ROLE",
      "outputs": [
        {
          "internalType": "bytes32",
          "name": "",
          "type": "bytes32"
        }
      ],
      "stateMutability": "view",
      "type": "function"
    },
    {
      "inputs": [],
      "name": "SPIDER_MAN",
      "outputs": [
        {
          "internalType": "uint256",
          "name": "",
          "type": "uint256"
        }
      ],
      "stateMutability": "view",
      "type": "function"
    },
    {
      "inputs": [],
      "name": "THOR",
      "outputs": [
        {
          "internalType": "uint256",
          "name": "",
          "type": "uint256"
        }
      ],
      "stateMutability": "view",
      "type": "function"
    },
    {
      "inputs": [
        {
          "internalType": "address",
          "name": "account",
          "type": "address"
        },
        {
          "internalType": "uint256",
          "name": "id",
          "type": "uint256"
        }
      ],
      "name": "balanceOf",
      "outputs": [
        {
          "internalType": "uint256",
          "name": "",
          "type": "uint256"
        }
      ],
      "stateMutability": "view",
      "type": "function"
    },
    {
      "inputs": [
        {
          "internalType": "address[]",
          "name": "accounts",
          "type": "address[]"
        },
        {
          "internalType": "uint256[]",
          "name": "ids",
          "type": "uint256[]"
        }
      ],
      "name": "balanceOfBatch",
      "outputs": [
        {
          "internalType": "uint256[]",
          "name": "",
          "type": "uint256[]"
        }
      ],
      "stateMutability": "view",
      "type": "function"
    },
    {
      "inputs": [
        {
          "internalType": "address",
          "name": "account",
          "type": "address"
        },
        {
          "internalType": "uint256",
          "name": "id",
          "type": "uint256"
        },
        {
          "internalType": "uint256",
          "name": "value",
          "type": "uint256"
        }
      ],
      "name": "burn",
      "outputs": [],
      "stateMutability": "nonpayable",
      "type": "function"
    },
    {
      "inputs": [
        {
          "internalType": "address",
          "name": "account",
          "type": "address"
        },
        {
          "internalType": "uint256[]",
          "name": "ids",
          "type": "uint256[]"
        },
        {
          "internalType": "uint256[]",
          "name": "values",
          "type": "uint256[]"
        }
      ],
      "name": "burnBatch",
      "outputs": [],
      "stateMutability": "nonpayable",
      "type": "function"
    },
    {
      "inputs": [
        {
          "internalType": "bytes32",
          "name": "role",
          "type": "bytes32"
        }
      ],
      "name": "getRoleAdmin",
      "outputs": [
        {
          "internalType": "bytes32",
          "name": "",
          "type": "bytes32"
        }
      ],
      "stateMutability": "view",
      "type": "function"
    },
    {
      "inputs": [
        {
          "internalType": "bytes32",
          "name": "role",
          "type": "bytes32"
        },
        {
          "internalType": "uint256",
          "name": "index",
          "type": "uint256"
        }
      ],
      "name": "getRoleMember",
      "outputs": [
        {
          "internalType": "address",
          "name": "",
          "type": "address"
        }
      ],
      "stateMutability": "view",
      "type": "function"
    },
    {
      "inputs": [
        {
          "internalType": "bytes32",
          "name": "role",
          "type": "bytes32"
        }
      ],
      "name": "getRoleMemberCount",
      "outputs": [
        {
          "internalType": "uint256",
          "name": "",
          "type": "uint256"
        }
      ],
      "stateMutability": "view",
      "type": "function"
    },
    {
      "inputs": [
        {
          "internalType": "bytes32",
          "name": "role",
          "type": "bytes32"
        },
        {
          "internalType": "address",
          "name": "account",
          "type": "address"
        }
      ],
      "name": "grantRole",
      "outputs": [],
      "stateMutability": "nonpayable",
      "type": "function"
    },
    {
      "inputs": [
        {
          "internalType": "bytes32",
          "name": "role",
          "type": "bytes32"
        },
        {
          "internalType": "address",
          "name": "account",
          "type": "address"
        }
      ],
      "name": "hasRole",
      "outputs": [
        {
          "internalType": "bool",
          "name": "",
          "type": "bool"
        }
      ],
      "stateMutability": "view",
      "type": "function"
    },
    {
      "inputs": [
        {
          "internalType": "address",
          "name": "account",
          "type": "address"
        },
        {
          "internalType": "address",
          "name": "operator",
          "type": "address"
        }
      ],
      "name": "isApprovedForAll",
      "outputs": [
        {
          "internalType": "bool",
          "name": "",
          "type": "bool"
        }
      ],
      "stateMutability": "view",
      "type": "function"
    },
    {
      "inputs": [
        {
          "internalType": "address",
          "name": "to",
          "type": "address"
        },
        {
          "internalType": "uint256",
          "name": "id",
          "type": "uint256"
        },
        {
          "internalType": "uint256",
          "name": "amount",
          "type": "uint256"
        },
        {
          "internalType": "bytes",
          "name": "data",
          "type": "bytes"
        }
      ],
      "name": "mint",
      "outputs": [],
      "stateMutability": "nonpayable",
      "type": "function"
    },
    {
      "inputs": [
        {
          "internalType": "address",
          "name": "to",
          "type": "address"
        },
        {
          "internalType": "uint256[]",
          "name": "ids",
          "type": "uint256[]"
        },
        {
          "internalType": "uint256[]",
          "name": "amounts",
          "type": "uint256[]"
        },
        {
          "internalType": "bytes",
          "name": "data",
          "type": "bytes"
        }
      ],
      "name": "mintBatch",
      "outputs": [],
      "stateMutability": "nonpayable",
      "type": "function"
    },
    {
      "inputs": [],
      "name": "pause",
      "outputs": [],
      "stateMutability": "nonpayable",
      "type": "function"
    },
    {
      "inputs": [],
      "name": "paused",
      "outputs": [
        {
          "internalType": "bool",
          "name": "",
          "type": "bool"
        }
      ],
      "stateMutability": "view",
      "type": "function"
    },
    {
      "inputs": [
        {
          "internalType": "bytes32",
          "name": "role",
          "type": "bytes32"
        },
        {
          "internalType": "address",
          "name": "account",
          "type": "address"
        }
      ],
      "name": "renounceRole",
      "outputs": [],
      "stateMutability": "nonpayable",
      "type": "function"
    },
    {
      "inputs": [
        {
          "internalType": "bytes32",
          "name": "role",
          "type": "bytes32"
        },
        {
          "internalType": "address",
          "name": "account",
          "type": "address"
        }
      ],
      "name": "revokeRole",
      "outputs": [],
      "stateMutability": "nonpayable",
      "type": "function"
    },
    {
      "inputs": [
        {
          "internalType": "address",
          "name": "from",
          "type": "address"
        },
        {
          "internalType": "address",
          "name": "to",
          "type": "address"
        },
        {
          "internalType": "uint256[]",
          "name": "ids",
          "type": "uint256[]"
        },
        {
          "internalType": "uint256[]",
          "name": "amounts",
          "type": "uint256[]"
        },
        {
          "internalType": "bytes",
          "name": "data",
          "type": "bytes"
        }
      ],
      "name": "safeBatchTransferFrom",
      "outputs": [],
      "stateMutability": "nonpayable",
      "type": "function"
    },
    {
      "inputs": [
        {
          "internalType": "address",
          "name": "from",
          "type": "address"
        },
        {
          "internalType": "address",
          "name": "to",
          "type": "address"
        },
        {
          "internalType": "uint256",
          "name": "id",
          "type": "uint256"
        },
        {
          "internalType": "uint256",
          "name": "amount",
          "type": "uint256"
        },
        {
          "internalType": "bytes",
          "name": "data",
          "type": "bytes"
        }
      ],
      "name": "safeTransferFrom",
      "outputs": [],
      "stateMutability": "nonpayable",
      "type": "function"
    },
    {
      "inputs": [
        {
          "internalType": "address",
          "name": "operator",
          "type": "address"
        },
        {
          "internalType": "bool",
          "name": "approved",
          "type": "bool"
        }
      ],
      "name": "setApprovalForAll",
      "outputs": [],
      "stateMutability": "nonpayable",
      "type": "function"
    },
    {
      "inputs": [
        {
          "internalType": "bytes4",
          "name": "interfaceId",
          "type": "bytes4"
        }
      ],
      "name": "supportsInterface",
      "outputs": [
        {
          "internalType": "bool",
          "name": "",
          "type": "bool"
        }
      ],
      "stateMutability": "view",
      "type": "function"
    },
    {
      "inputs": [],
      "name": "unpause",
      "outputs": [],
      "stateMutability": "nonpayable",
      "type": "function"
    },
    {
      "inputs": [
        {
          "internalType": "uint256",
          "name": "",
          "type": "uint256"
        }
      ],
      "name": "uri",
      "outputs": [
        {
          "internalType": "string",
          "name": "",
          "type": "string"
        }
      ],
      "stateMutability": "view",
      "type": "function"
    }
  ],
  "bytecode": "0x60806040523480156200001157600080fd5b50604051806060016040528060378152602001620060e560379139806200003e81620001a160201b60201c565b506000600560006101000a81548160ff0219169083151502179055506200007e6000801b62000072620001bd60201b60201c565b620001c560201b60201c565b620000bf7f9f2df0fed2c77648de5860a4cc508cd0818c85b8b8a1ab4ceeef8d981c8956a6620000b3620001bd60201b60201c565b620001c560201b60201c565b620001007f65d7a28e3265b37a6474929f336521b332c1681b933f6cb9f3376673440d862a620000f4620001bd60201b60201c565b620001c560201b60201c565b506200012d336000670de0b6b3a764000060405180602001604052806000815250620001db60201b60201c565b620001513360018060405180602001604052806000815250620001db60201b60201c565b62000176336002600560405180602001604052806000815250620001db60201b60201c565b6200019b336003600a60405180602001604052806000815250620001db60201b60201c565b620011d5565b8060049080519060200190620001b9929190620009f2565b5050565b600033905090565b620001d78282620003c460201b60201c565b5050565b600073ffffffffffffffffffffffffffffffffffffffff168473ffffffffffffffffffffffffffffffffffffffff1614156200024e576040517f08c379a0000000000000000000000000000000000000000000000000000000008152600401620002459062000d13565b60405180910390fd5b600062000260620001bd60201b60201c565b9050600062000275856200040c60201b60201c565b905060006200028a856200040c60201b60201c565b9050620002a383600089858589620004d560201b60201c565b846002600088815260200190815260200160002060008973ffffffffffffffffffffffffffffffffffffffff1673ffffffffffffffffffffffffffffffffffffffff168152602001908152602001600020600082825462000305919062000da4565b925050819055508673ffffffffffffffffffffffffffffffffffffffff16600073ffffffffffffffffffffffffffffffffffffffff168473ffffffffffffffffffffffffffffffffffffffff167fc3d58168c5ae7397731d063d5bbf3d657854427343f4c083240f7aacaa2d0f6289896040516200038592919062000d35565b60405180910390a4620003a483600089858589620004f860201b60201c565b620003bb836000898989896200050060201b60201c565b50505050505050565b620003db82826200070a60201b62000ff91760201c565b620004078160016000858152602001908152602001600020620007fb60201b620010d91790919060201c565b505050565b60606000600167ffffffffffffffff81111562000452577f4e487b7100000000000000000000000000000000000000000000000000000000600052604160045260246000fd5b604051908082528060200260200182016040528015620004815781602001602082028036833780820191505090505b5090508281600081518110620004c0577f4e487b7100000000000000000000000000000000000000000000000000000000600052603260045260246000fd5b60200260200101818152505080915050919050565b620004f08686868686866200083360201b620011091760201c565b505050505050565b505050505050565b6200052c8473ffffffffffffffffffffffffffffffffffffffff16620008a960201b620011671760201c565b1562000702578373ffffffffffffffffffffffffffffffffffffffff1663f23a6e6187878686866040518663ffffffff1660e01b81526004016200057595949392919062000c25565b602060405180830381600087803b1580156200059057600080fd5b505af1925050508015620005c457506040513d601f19601f82011682018060405250810190620005c1919062000ab9565b60015b6200067657620005d362000f9a565b806308c379a01415620006375750620005eb62001119565b80620005f8575062000639565b806040517f08c379a00000000000000000000000000000000000000000000000000000000081526004016200062e919062000c89565b60405180910390fd5b505b6040517f08c379a00000000000000000000000000000000000000000000000000000000081526004016200066d9062000cad565b60405180910390fd5b63f23a6e6160e01b7bffffffffffffffffffffffffffffffffffffffffffffffffffffffff1916817bffffffffffffffffffffffffffffffffffffffffffffffffffffffff19161462000700576040517f08c379a0000000000000000000000000000000000000000000000000000000008152600401620006f79062000ccf565b60405180910390fd5b505b505050505050565b6200071c8282620008cc60201b60201c565b620007f757600160008084815260200190815260200160002060000160008373ffffffffffffffffffffffffffffffffffffffff1673ffffffffffffffffffffffffffffffffffffffff16815260200190815260200160002060006101000a81548160ff0219169083151502179055506200079c620001bd60201b60201c565b73ffffffffffffffffffffffffffffffffffffffff168173ffffffffffffffffffffffffffffffffffffffff16837f2f8788117e7eff1d82e926ec794901d17c78024a50270940304540a733656f0d60405160405180910390a45b5050565b60006200082b836000018373ffffffffffffffffffffffffffffffffffffffff1660001b6200093660201b60201c565b905092915050565b6200084e868686868686620009b060201b6200118a1760201c565b6200085e620009b860201b60201c565b15620008a1576040517f08c379a0000000000000000000000000000000000000000000000000000000008152600401620008989062000cf1565b60405180910390fd5b505050505050565b6000808273ffffffffffffffffffffffffffffffffffffffff163b119050919050565b600080600084815260200190815260200160002060000160008373ffffffffffffffffffffffffffffffffffffffff1673ffffffffffffffffffffffffffffffffffffffff16815260200190815260200160002060009054906101000a900460ff16905092915050565b60006200094a8383620009cf60201b60201c565b620009a5578260000182908060018154018082558091505060019003906000526020600020016000909190919091505582600001805490508360010160008481526020019081526020016000208190555060019050620009aa565b600090505b92915050565b505050505050565b6000600560009054906101000a900460ff16905090565b600080836001016000848152602001908152602001600020541415905092915050565b82805462000a009062000ea1565b90600052602060002090601f01602090048101928262000a24576000855562000a70565b82601f1062000a3f57805160ff191683800117855562000a70565b8280016001018555821562000a70579182015b8281111562000a6f57825182559160200191906001019062000a52565b5b50905062000a7f919062000a83565b5090565b5b8082111562000a9e57600081600090555060010162000a84565b5090565b60008151905062000ab381620011bb565b92915050565b60006020828403121562000acc57600080fd5b600062000adc8482850162000aa2565b91505092915050565b62000af08162000e01565b82525050565b600062000b038262000d6c565b62000b0f818562000d82565b935062000b2181856020860162000e6b565b62000b2c8162000fbf565b840191505092915050565b600062000b448262000d77565b62000b50818562000d93565b935062000b6281856020860162000e6b565b62000b6d8162000fbf565b840191505092915050565b600062000b8760348362000d93565b915062000b948262000fdd565b604082019050919050565b600062000bae60288362000d93565b915062000bbb826200102c565b604082019050919050565b600062000bd5602c8362000d93565b915062000be2826200107b565b604082019050919050565b600062000bfc60218362000d93565b915062000c0982620010ca565b604082019050919050565b62000c1f8162000e61565b82525050565b600060a08201905062000c3c600083018862000ae5565b62000c4b602083018762000ae5565b62000c5a604083018662000c14565b62000c69606083018562000c14565b818103608083015262000c7d818462000af6565b90509695505050505050565b6000602082019050818103600083015262000ca5818462000b37565b905092915050565b6000602082019050818103600083015262000cc88162000b78565b9050919050565b6000602082019050818103600083015262000cea8162000b9f565b9050919050565b6000602082019050818103600083015262000d0c8162000bc6565b9050919050565b6000602082019050818103600083015262000d2e8162000bed565b9050919050565b600060408201905062000d4c600083018562000c14565b62000d5b602083018462000c14565b9392505050565b6000604051905090565b600081519050919050565b600081519050919050565b600082825260208201905092915050565b600082825260208201905092915050565b600062000db18262000e61565b915062000dbe8362000e61565b9250827fffffffffffffffffffffffffffffffffffffffffffffffffffffffffffffffff0382111562000df65762000df562000f0d565b5b828201905092915050565b600062000e0e8262000e41565b9050919050565b60007fffffffff0000000000000000000000000000000000000000000000000000000082169050919050565b600073ffffffffffffffffffffffffffffffffffffffff82169050919050565b6000819050919050565b60005b8381101562000e8b57808201518184015260208101905062000e6e565b8381111562000e9b576000848401525b50505050565b6000600282049050600182168062000eba57607f821691505b6020821081141562000ed15762000ed062000f3c565b5b50919050565b62000ee28262000fbf565b810181811067ffffffffffffffff8211171562000f045762000f0362000f6b565b5b80604052505050565b7f4e487b7100000000000000000000000000000000000000000000000000000000600052601160045260246000fd5b7f4e487b7100000000000000000000000000000000000000000000000000000000600052602260045260246000fd5b7f4e487b7100000000000000000000000000000000000000000000000000000000600052604160045260246000fd5b600060033d111562000fbc5760046000803e62000fb960005162000fd0565b90505b90565b6000601f19601f8301169050919050565b60008160e01c9050919050565b7f455243313135353a207472616e7366657220746f206e6f6e204552433131353560008201527f526563656976657220696d706c656d656e746572000000000000000000000000602082015250565b7f455243313135353a204552433131353552656365697665722072656a6563746560008201527f6420746f6b656e73000000000000000000000000000000000000000000000000602082015250565b7f455243313135355061757361626c653a20746f6b656e207472616e736665722060008201527f7768696c65207061757365640000000000000000000000000000000000000000602082015250565b7f455243313135353a206d696e7420746f20746865207a65726f2061646472657360008201527f7300000000000000000000000000000000000000000000000000000000000000602082015250565b600060443d10156200112b57620011b8565b6200113562000d62565b60043d036004823e80513d602482011167ffffffffffffffff821117156200115f575050620011b8565b808201805167ffffffffffffffff8111156200117f5750505050620011b8565b80602083010160043d0385018111156200119e575050505050620011b8565b620011af8260200185018662000ed7565b82955050505050505b90565b620011c68162000e15565b8114620011d257600080fd5b50565b614f0080620011e56000396000f3fe608060405234801561001057600080fd5b50600436106101ce5760003560e01c8063731133e911610104578063ca15c873116100a2578063e952d34d11610071578063e952d34d14610519578063e985e9c514610537578063f242432a14610567578063f5298aca14610583576101ce565b8063ca15c87314610491578063d5391393146104c1578063d547741f146104df578063e63ab1e9146104fb576101ce565b806391d14854116100de57806391d1485414610409578063a217fddf14610439578063a22cb46514610457578063ad11476c14610473576101ce565b8063731133e9146103b35780638456cb59146103cf5780639010d07c146103d9576101ce565b80632f2ff15d1161017157806348f853ba1161014b57806348f853ba1461032b5780634e1273f4146103495780635c975abb146103795780636b20c45414610397576101ce565b80632f2ff15d146102e957806336568abe146103055780633f4ba83a14610321576101ce565b80630e89341c116101ad5780630e89341c146102515780631f7fdffa14610281578063248a9ca31461029d5780632eb2c2d6146102cd576101ce565b8062fdd58e146101d357806301ffc9a71461020357806302ed78a014610233575b600080fd5b6101ed60048036038101906101e891906137c4565b61059f565b6040516101fa9190614300565b60405180910390f35b61021d600480360381019061021891906139d7565b610669565b60405161022a9190614028565b60405180910390f35b61023b61067b565b6040516102489190614300565b60405180910390f35b61026b60048036038101906102669190613a29565b610680565b604051610278919061405e565b60405180910390f35b61029b600480360381019061029691906136dd565b610714565b005b6102b760048036038101906102b29190613936565b610796565b6040516102c49190614043565b60405180910390f35b6102e760048036038101906102e29190613510565b6107b5565b005b61030360048036038101906102fe919061395f565b610856565b005b61031f600480360381019061031a919061395f565b610877565b005b6103296108fa565b005b610333610974565b6040516103409190614300565b60405180910390f35b610363600480360381019061035e91906138ca565b610979565b6040516103709190613fcf565b60405180910390f35b610381610b2a565b60405161038e9190614028565b60405180910390f35b6103b160048036038101906103ac919061365e565b610b41565b005b6103cd60048036038101906103c8919061384f565b610bde565b005b6103d7610c60565b005b6103f360048036038101906103ee919061399b565b610cda565b6040516104009190613ef2565b60405180910390f35b610423600480360381019061041e919061395f565b610d09565b6040516104309190614028565b60405180910390f35b610441610d73565b60405161044e9190614043565b60405180910390f35b610471600480360381019061046c9190613788565b610d7a565b005b61047b610d90565b6040516104889190614300565b60405180910390f35b6104ab60048036038101906104a69190613936565b610d95565b6040516104b89190614300565b60405180910390f35b6104c9610db9565b6040516104d69190614043565b60405180910390f35b6104f960048036038101906104f4919061395f565b610ddd565b005b610503610dfe565b6040516105109190614043565b60405180910390f35b610521610e22565b60405161052e9190614300565b60405180910390f35b610551600480360381019061054c91906134d4565b610e27565b60405161055e9190614028565b60405180910390f35b610581600480360381019061057c91906135cf565b610ebb565b005b61059d60048036038101906105989190613800565b610f5c565b005b60008073ffffffffffffffffffffffffffffffffffffffff168373ffffffffffffffffffffffffffffffffffffffff161415610610576040517f08c379a000000000000000000000000000000000000000000000000000000000815260040161060790614160565b60405180910390fd5b6002600083815260200190815260200160002060008473ffffffffffffffffffffffffffffffffffffffff1673ffffffffffffffffffffffffffffffffffffffff16815260200190815260200160002054905092915050565b600061067482611192565b9050919050565b600281565b60606004805461068f9061463c565b80601f01602080910402602001604051908101604052809291908181526020018280546106bb9061463c565b80156107085780601f106106dd57610100808354040283529160200191610708565b820191906000526020600020905b8154815290600101906020018083116106eb57829003601f168201915b50505050509050919050565b6107457f9f2df0fed2c77648de5860a4cc508cd0818c85b8b8a1ab4ceeef8d981c8956a6610740611274565b610d09565b610784576040517f08c379a000000000000000000000000000000000000000000000000000000000815260040161077b906141e0565b60405180910390fd5b6107908484848461127c565b50505050565b6000806000838152602001908152602001600020600101549050919050565b6107bd611274565b73ffffffffffffffffffffffffffffffffffffffff168573ffffffffffffffffffffffffffffffffffffffff1614806108035750610802856107fd611274565b610e27565b5b610842576040517f08c379a0000000000000000000000000000000000000000000000000000000008152600401610839906140a0565b60405180910390fd5b61084f85858585856114f6565b5050505050565b61085f82610796565b61086881611867565b610872838361187b565b505050565b61087f611274565b73ffffffffffffffffffffffffffffffffffffffff168173ffffffffffffffffffffffffffffffffffffffff16146108ec576040517f08c379a00000000000000000000000000000000000000000000000000000000081526004016108e3906142e0565b60405180910390fd5b6108f682826118af565b5050565b61092b7f65d7a28e3265b37a6474929f336521b332c1681b933f6cb9f3376673440d862a610926611274565b610d09565b61096a576040517f08c379a000000000000000000000000000000000000000000000000000000000815260040161096190614220565b60405180910390fd5b6109726118e3565b565b600181565b606081518351146109bf576040517f08c379a00000000000000000000000000000000000000000000000000000000081526004016109b690614280565b60405180910390fd5b6000835167ffffffffffffffff811115610a02577f4e487b7100000000000000000000000000000000000000000000000000000000600052604160045260246000fd5b604051908082528060200260200182016040528015610a305781602001602082028036833780820191505090505b50905060005b8451811015610b1f57610ac9858281518110610a7b577f4e487b7100000000000000000000000000000000000000000000000000000000600052603260045260246000fd5b6020026020010151858381518110610abc577f4e487b7100000000000000000000000000000000000000000000000000000000600052603260045260246000fd5b602002602001015161059f565b828281518110610b02577f4e487b7100000000000000000000000000000000000000000000000000000000600052603260045260246000fd5b60200260200101818152505080610b189061469f565b9050610a36565b508091505092915050565b6000600560009054906101000a900460ff16905090565b610b49611274565b73ffffffffffffffffffffffffffffffffffffffff168373ffffffffffffffffffffffffffffffffffffffff161480610b8f5750610b8e83610b89611274565b610e27565b5b610bce576040517f08c379a0000000000000000000000000000000000000000000000000000000008152600401610bc5906140a0565b60405180910390fd5b610bd9838383611946565b505050565b610c0f7f9f2df0fed2c77648de5860a4cc508cd0818c85b8b8a1ab4ceeef8d981c8956a6610c0a611274565b610d09565b610c4e576040517f08c379a0000000000000000000000000000000000000000000000000000000008152600401610c45906141e0565b60405180910390fd5b610c5a84848484611c63565b50505050565b610c917f65d7a28e3265b37a6474929f336521b332c1681b933f6cb9f3376673440d862a610c8c611274565b610d09565b610cd0576040517f08c379a0000000000000000000000000000000000000000000000000000000008152600401610cc790614240565b60405180910390fd5b610cd8611e15565b565b6000610d018260016000868152602001908152602001600020611e7890919063ffffffff16565b905092915050565b600080600084815260200190815260200160002060000160008373ffffffffffffffffffffffffffffffffffffffff1673ffffffffffffffffffffffffffffffffffffffff16815260200190815260200160002060009054906101000a900460ff16905092915050565b6000801b81565b610d8c610d85611274565b8383611e92565b5050565b600381565b6000610db260016000848152602001908152602001600020611fff565b9050919050565b7f9f2df0fed2c77648de5860a4cc508cd0818c85b8b8a1ab4ceeef8d981c8956a681565b610de682610796565b610def81611867565b610df983836118af565b505050565b7f65d7a28e3265b37a6474929f336521b332c1681b933f6cb9f3376673440d862a81565b600081565b6000600360008473ffffffffffffffffffffffffffffffffffffffff1673ffffffffffffffffffffffffffffffffffffffff16815260200190815260200160002060008373ffffffffffffffffffffffffffffffffffffffff1673ffffffffffffffffffffffffffffffffffffffff16815260200190815260200160002060009054906101000a900460ff16905092915050565b610ec3611274565b73ffffffffffffffffffffffffffffffffffffffff168573ffffffffffffffffffffffffffffffffffffffff161480610f095750610f0885610f03611274565b610e27565b5b610f48576040517f08c379a0000000000000000000000000000000000000000000000000000000008152600401610f3f906140a0565b60405180910390fd5b610f558585858585612014565b5050505050565b610f64611274565b73ffffffffffffffffffffffffffffffffffffffff168373ffffffffffffffffffffffffffffffffffffffff161480610faa5750610fa983610fa4611274565b610e27565b5b610fe9576040517f08c379a0000000000000000000000000000000000000000000000000000000008152600401610fe0906140a0565b60405180910390fd5b610ff48383836122b3565b505050565b6110038282610d09565b6110d557600160008084815260200190815260200160002060000160008373ffffffffffffffffffffffffffffffffffffffff1673ffffffffffffffffffffffffffffffffffffffff16815260200190815260200160002060006101000a81548160ff02191690831515021790555061107a611274565b73ffffffffffffffffffffffffffffffffffffffff168173ffffffffffffffffffffffffffffffffffffffff16837f2f8788117e7eff1d82e926ec794901d17c78024a50270940304540a733656f0d60405160405180910390a45b5050565b6000611101836000018373ffffffffffffffffffffffffffffffffffffffff1660001b6124fc565b905092915050565b61111786868686868661118a565b61111f610b2a565b1561115f576040517f08c379a000000000000000000000000000000000000000000000000000000000815260040161115690614140565b60405180910390fd5b505050505050565b6000808273ffffffffffffffffffffffffffffffffffffffff163b119050919050565b505050505050565b60007fd9b67a26000000000000000000000000000000000000000000000000000000007bffffffffffffffffffffffffffffffffffffffffffffffffffffffff1916827bffffffffffffffffffffffffffffffffffffffffffffffffffffffff1916148061125d57507f0e89341c000000000000000000000000000000000000000000000000000000007bffffffffffffffffffffffffffffffffffffffffffffffffffffffff1916827bffffffffffffffffffffffffffffffffffffffffffffffffffffffff1916145b8061126d575061126c8261256c565b5b9050919050565b600033905090565b600073ffffffffffffffffffffffffffffffffffffffff168473ffffffffffffffffffffffffffffffffffffffff1614156112ec576040517f08c379a00000000000000000000000000000000000000000000000000000000081526004016112e3906142c0565b60405180910390fd5b8151835114611330576040517f08c379a0000000000000000000000000000000000000000000000000000000008152600401611327906142a0565b60405180910390fd5b600061133a611274565b905061134b816000878787876125e6565b60005b845181101561145157838181518110611390577f4e487b7100000000000000000000000000000000000000000000000000000000600052603260045260246000fd5b6020026020010151600260008784815181106113d5577f4e487b7100000000000000000000000000000000000000000000000000000000600052603260045260246000fd5b6020026020010151815260200190815260200160002060008873ffffffffffffffffffffffffffffffffffffffff1673ffffffffffffffffffffffffffffffffffffffff1681526020019081526020016000206000828254611437919061446e565b9250508190555080806114499061469f565b91505061134e565b508473ffffffffffffffffffffffffffffffffffffffff16600073ffffffffffffffffffffffffffffffffffffffff168273ffffffffffffffffffffffffffffffffffffffff167f4a39dc06d4c0dbc64b70af90fd698a233a518aa5d07e595d983b8c0526c8f7fb87876040516114c9929190613ff1565b60405180910390a46114e0816000878787876125fc565b6114ef81600087878787612604565b5050505050565b815183511461153a576040517f08c379a0000000000000000000000000000000000000000000000000000000008152600401611531906142a0565b60405180910390fd5b600073ffffffffffffffffffffffffffffffffffffffff168473ffffffffffffffffffffffffffffffffffffffff1614156115aa576040517f08c379a00000000000000000000000000000000000000000000000000000000081526004016115a1906141a0565b60405180910390fd5b60006115b4611274565b90506115c48187878787876125e6565b60005b84518110156117c457600085828151811061160b577f4e487b7100000000000000000000000000000000000000000000000000000000600052603260045260246000fd5b602002602001015190506000858381518110611650577f4e487b7100000000000000000000000000000000000000000000000000000000600052603260045260246000fd5b6020026020010151905060006002600084815260200190815260200160002060008b73ffffffffffffffffffffffffffffffffffffffff1673ffffffffffffffffffffffffffffffffffffffff168152602001908152602001600020549050818110156116f2576040517f08c379a00000000000000000000000000000000000000000000000000000000081526004016116e990614200565b60405180910390fd5b8181036002600085815260200190815260200160002060008c73ffffffffffffffffffffffffffffffffffffffff1673ffffffffffffffffffffffffffffffffffffffff16815260200190815260200160002081905550816002600085815260200190815260200160002060008b73ffffffffffffffffffffffffffffffffffffffff1673ffffffffffffffffffffffffffffffffffffffff16815260200190815260200160002060008282546117a9919061446e565b92505081905550505050806117bd9061469f565b90506115c7565b508473ffffffffffffffffffffffffffffffffffffffff168673ffffffffffffffffffffffffffffffffffffffff168273ffffffffffffffffffffffffffffffffffffffff167f4a39dc06d4c0dbc64b70af90fd698a233a518aa5d07e595d983b8c0526c8f7fb878760405161183b929190613ff1565b60405180910390a46118518187878787876125fc565b61185f818787878787612604565b505050505050565b61187881611873611274565b6127eb565b50565b6118858282610ff9565b6118aa81600160008581526020019081526020016000206110d990919063ffffffff16565b505050565b6118b98282612888565b6118de816001600085815260200190815260200160002061296990919063ffffffff16565b505050565b6118eb612999565b6000600560006101000a81548160ff0219169083151502179055507f5db9ee0a495bf2e6ff9c91a7834c1ba4fdd244a5e8aa4e537bd38aeae4b073aa61192f611274565b60405161193c9190613ef2565b60405180910390a1565b600073ffffffffffffffffffffffffffffffffffffffff168373ffffffffffffffffffffffffffffffffffffffff1614156119b6576040517f08c379a00000000000000000000000000000000000000000000000000000000081526004016119ad906141c0565b60405180910390fd5b80518251146119fa576040517f08c379a00000000000000000000000000000000000000000000000000000000081526004016119f1906142a0565b60405180910390fd5b6000611a04611274565b9050611a24818560008686604051806020016040528060008152506125e6565b60005b8351811015611bbf576000848281518110611a6b577f4e487b7100000000000000000000000000000000000000000000000000000000600052603260045260246000fd5b602002602001015190506000848381518110611ab0577f4e487b7100000000000000000000000000000000000000000000000000000000600052603260045260246000fd5b6020026020010151905060006002600084815260200190815260200160002060008973ffffffffffffffffffffffffffffffffffffffff1673ffffffffffffffffffffffffffffffffffffffff16815260200190815260200160002054905081811015611b52576040517f08c379a0000000000000000000000000000000000000000000000000000000008152600401611b4990614120565b60405180910390fd5b8181036002600085815260200190815260200160002060008a73ffffffffffffffffffffffffffffffffffffffff1673ffffffffffffffffffffffffffffffffffffffff168152602001908152602001600020819055505050508080611bb79061469f565b915050611a27565b50600073ffffffffffffffffffffffffffffffffffffffff168473ffffffffffffffffffffffffffffffffffffffff168273ffffffffffffffffffffffffffffffffffffffff167f4a39dc06d4c0dbc64b70af90fd698a233a518aa5d07e595d983b8c0526c8f7fb8686604051611c37929190613ff1565b60405180910390a4611c5d818560008686604051806020016040528060008152506125fc565b50505050565b600073ffffffffffffffffffffffffffffffffffffffff168473ffffffffffffffffffffffffffffffffffffffff161415611cd3576040517f08c379a0000000000000000000000000000000000000000000000000000000008152600401611cca906142c0565b60405180910390fd5b6000611cdd611274565b90506000611cea856129e2565b90506000611cf7856129e2565b9050611d08836000898585896125e6565b846002600088815260200190815260200160002060008973ffffffffffffffffffffffffffffffffffffffff1673ffffffffffffffffffffffffffffffffffffffff1681526020019081526020016000206000828254611d68919061446e565b925050819055508673ffffffffffffffffffffffffffffffffffffffff16600073ffffffffffffffffffffffffffffffffffffffff168473ffffffffffffffffffffffffffffffffffffffff167fc3d58168c5ae7397731d063d5bbf3d657854427343f4c083240f7aacaa2d0f628989604051611de692919061431b565b60405180910390a4611dfd836000898585896125fc565b611e0c83600089898989612aa8565b50505050505050565b611e1d612c8f565b6001600560006101000a81548160ff0219169083151502179055507f62e78cea01bee320cd4e420270b5ea74000d11b0c9f74754ebdbfc544b05a258611e61611274565b604051611e6e9190613ef2565b60405180910390a1565b6000611e878360000183612cd9565b60001c905092915050565b8173ffffffffffffffffffffffffffffffffffffffff168373ffffffffffffffffffffffffffffffffffffffff161415611f01576040517f08c379a0000000000000000000000000000000000000000000000000000000008152600401611ef890614260565b60405180910390fd5b80600360008573ffffffffffffffffffffffffffffffffffffffff1673ffffffffffffffffffffffffffffffffffffffff16815260200190815260200160002060008473ffffffffffffffffffffffffffffffffffffffff1673ffffffffffffffffffffffffffffffffffffffff16815260200190815260200160002060006101000a81548160ff0219169083151502179055508173ffffffffffffffffffffffffffffffffffffffff168373ffffffffffffffffffffffffffffffffffffffff167f17307eab39ab6107e8899845ad3d59bd9653f200f220920489ca2b5937696c3183604051611ff29190614028565b60405180910390a3505050565b600061200d82600001612d2a565b9050919050565b600073ffffffffffffffffffffffffffffffffffffffff168473ffffffffffffffffffffffffffffffffffffffff161415612084576040517f08c379a000000000000000000000000000000000000000000000000000000000815260040161207b906141a0565b60405180910390fd5b600061208e611274565b9050600061209b856129e2565b905060006120a8856129e2565b90506120b88389898585896125e6565b60006002600088815260200190815260200160002060008a73ffffffffffffffffffffffffffffffffffffffff1673ffffffffffffffffffffffffffffffffffffffff16815260200190815260200160002054905085811015612150576040517f08c379a000000000000000000000000000000000000000000000000000000000815260040161214790614200565b60405180910390fd5b8581036002600089815260200190815260200160002060008b73ffffffffffffffffffffffffffffffffffffffff1673ffffffffffffffffffffffffffffffffffffffff16815260200190815260200160002081905550856002600089815260200190815260200160002060008a73ffffffffffffffffffffffffffffffffffffffff1673ffffffffffffffffffffffffffffffffffffffff1681526020019081526020016000206000828254612207919061446e565b925050819055508773ffffffffffffffffffffffffffffffffffffffff168973ffffffffffffffffffffffffffffffffffffffff168573ffffffffffffffffffffffffffffffffffffffff167fc3d58168c5ae7397731d063d5bbf3d657854427343f4c083240f7aacaa2d0f628a8a60405161228492919061431b565b60405180910390a461229a848a8a86868a6125fc565b6122a8848a8a8a8a8a612aa8565b505050505050505050565b600073ffffffffffffffffffffffffffffffffffffffff168373ffffffffffffffffffffffffffffffffffffffff161415612323576040517f08c379a000000000000000000000000000000000000000000000000000000000815260040161231a906141c0565b60405180910390fd5b600061232d611274565b9050600061233a846129e2565b90506000612347846129e2565b9050612367838760008585604051806020016040528060008152506125e6565b60006002600087815260200190815260200160002060008873ffffffffffffffffffffffffffffffffffffffff1673ffffffffffffffffffffffffffffffffffffffff168152602001908152602001600020549050848110156123ff576040517f08c379a00000000000000000000000000000000000000000000000000000000081526004016123f690614120565b60405180910390fd5b8481036002600088815260200190815260200160002060008973ffffffffffffffffffffffffffffffffffffffff1673ffffffffffffffffffffffffffffffffffffffff16815260200190815260200160002081905550600073ffffffffffffffffffffffffffffffffffffffff168773ffffffffffffffffffffffffffffffffffffffff168573ffffffffffffffffffffffffffffffffffffffff167fc3d58168c5ae7397731d063d5bbf3d657854427343f4c083240f7aacaa2d0f6289896040516124cd92919061431b565b60405180910390a46124f3848860008686604051806020016040528060008152506125fc565b50505050505050565b60006125088383612d3b565b612561578260000182908060018154018082558091505060019003906000526020600020016000909190919091505582600001805490508360010160008481526020019081526020016000208190555060019050612566565b600090505b92915050565b60007f5a05180f000000000000000000000000000000000000000000000000000000007bffffffffffffffffffffffffffffffffffffffffffffffffffffffff1916827bffffffffffffffffffffffffffffffffffffffffffffffffffffffff191614806125df57506125de82612d5e565b5b9050919050565b6125f4868686868686611109565b505050505050565b505050505050565b6126238473ffffffffffffffffffffffffffffffffffffffff16611167565b156127e3578373ffffffffffffffffffffffffffffffffffffffff1663bc197c8187878686866040518663ffffffff1660e01b8152600401612669959493929190613f0d565b602060405180830381600087803b15801561268357600080fd5b505af19250505080156126b457506040513d601f19601f820116820180604052508101906126b19190613a00565b60015b61275a576126c0614775565b806308c379a0141561271d57506126d5614dc1565b806126e0575061271f565b806040517f08c379a0000000000000000000000000000000000000000000000000000000008152600401612714919061405e565b60405180910390fd5b505b6040517f08c379a000000000000000000000000000000000000000000000000000000000815260040161275190614080565b60405180910390fd5b63bc197c8160e01b7bffffffffffffffffffffffffffffffffffffffffffffffffffffffff1916817bffffffffffffffffffffffffffffffffffffffffffffffffffffffff1916146127e1576040517f08c379a00000000000000000000000000000000000000000000000000000000081526004016127d8906140e0565b60405180910390fd5b505b505050505050565b6127f58282610d09565b6128845761281a8173ffffffffffffffffffffffffffffffffffffffff166014612dd8565b6128288360001c6020612dd8565b604051602001612839929190613eb8565b6040516020818303038152906040526040517f08c379a000000000000000000000000000000000000000000000000000000000815260040161287b919061405e565b60405180910390fd5b5050565b6128928282610d09565b1561296557600080600084815260200190815260200160002060000160008373ffffffffffffffffffffffffffffffffffffffff1673ffffffffffffffffffffffffffffffffffffffff16815260200190815260200160002060006101000a81548160ff02191690831515021790555061290a611274565b73ffffffffffffffffffffffffffffffffffffffff168173ffffffffffffffffffffffffffffffffffffffff16837ff6391f5c32d9c69d2a47ea670b442974b53935d1edc7fd64eb21e047a839171b60405160405180910390a45b5050565b6000612991836000018373ffffffffffffffffffffffffffffffffffffffff1660001b6130d2565b905092915050565b6129a1610b2a565b6129e0576040517f08c379a00000000000000000000000000000000000000000000000000000000081526004016129d790614100565b60405180910390fd5b565b60606000600167ffffffffffffffff811115612a27577f4e487b7100000000000000000000000000000000000000000000000000000000600052604160045260246000fd5b604051908082528060200260200182016040528015612a555781602001602082028036833780820191505090505b5090508281600081518110612a93577f4e487b7100000000000000000000000000000000000000000000000000000000600052603260045260246000fd5b60200260200101818152505080915050919050565b612ac78473ffffffffffffffffffffffffffffffffffffffff16611167565b15612c87578373ffffffffffffffffffffffffffffffffffffffff1663f23a6e6187878686866040518663ffffffff1660e01b8152600401612b0d959493929190613f75565b602060405180830381600087803b158015612b2757600080fd5b505af1925050508015612b5857506040513d601f19601f82011682018060405250810190612b559190613a00565b60015b612bfe57612b64614775565b806308c379a01415612bc15750612b79614dc1565b80612b845750612bc3565b806040517f08c379a0000000000000000000000000000000000000000000000000000000008152600401612bb8919061405e565b60405180910390fd5b505b6040517f08c379a0000000000000000000000000000000000000000000000000000000008152600401612bf590614080565b60405180910390fd5b63f23a6e6160e01b7bffffffffffffffffffffffffffffffffffffffffffffffffffffffff1916817bffffffffffffffffffffffffffffffffffffffffffffffffffffffff191614612c85576040517f08c379a0000000000000000000000000000000000000000000000000000000008152600401612c7c906140e0565b60405180910390fd5b505b505050505050565b612c97610b2a565b15612cd7576040517f08c379a0000000000000000000000000000000000000000000000000000000008152600401612cce90614180565b60405180910390fd5b565b6000826000018281548110612d17577f4e487b7100000000000000000000000000000000000000000000000000000000600052603260045260246000fd5b9060005260206000200154905092915050565b600081600001805490509050919050565b600080836001016000848152602001908152602001600020541415905092915050565b60007f7965db0b000000000000000000000000000000000000000000000000000000007bffffffffffffffffffffffffffffffffffffffffffffffffffffffff1916827bffffffffffffffffffffffffffffffffffffffffffffffffffffffff19161480612dd15750612dd082613258565b5b9050919050565b606060006002836002612deb91906144c4565b612df5919061446e565b67ffffffffffffffff811115612e34577f4e487b7100000000000000000000000000000000000000000000000000000000600052604160045260246000fd5b6040519080825280601f01601f191660200182016040528015612e665781602001600182028036833780820191505090505b5090507f300000000000000000000000000000000000000000000000000000000000000081600081518110612ec4577f4e487b7100000000000000000000000000000000000000000000000000000000600052603260045260246000fd5b60200101907effffffffffffffffffffffffffffffffffffffffffffffffffffffffffffff1916908160001a9053507f780000000000000000000000000000000000000000000000000000000000000081600181518110612f4e577f4e487b7100000000000000000000000000000000000000000000000000000000600052603260045260246000fd5b60200101907effffffffffffffffffffffffffffffffffffffffffffffffffffffffffffff1916908160001a90535060006001846002612f8e91906144c4565b612f98919061446e565b90505b6001811115613084577f3031323334353637383961626364656600000000000000000000000000000000600f861660108110613000577f4e487b7100000000000000000000000000000000000000000000000000000000600052603260045260246000fd5b1a60f81b82828151811061303d577f4e487b7100000000000000000000000000000000000000000000000000000000600052603260045260246000fd5b60200101907effffffffffffffffffffffffffffffffffffffffffffffffffffffffffffff1916908160001a905350600485901c94508061307d90614612565b9050612f9b565b50600084146130c8576040517f08c379a00000000000000000000000000000000000000000000000000000000081526004016130bf906140c0565b60405180910390fd5b8091505092915050565b6000808360010160008481526020019081526020016000205490506000811461324c576000600182613104919061451e565b905060006001866000018054905061311c919061451e565b90508181146131d7576000866000018281548110613163577f4e487b7100000000000000000000000000000000000000000000000000000000600052603260045260246000fd5b90600052602060002001549050808760000184815481106131ad577f4e487b7100000000000000000000000000000000000000000000000000000000600052603260045260246000fd5b90600052602060002001819055508387600101600083815260200190815260200160002081905550505b85600001805480613211577f4e487b7100000000000000000000000000000000000000000000000000000000600052603160045260246000fd5b600190038181906000526020600020016000905590558560010160008681526020019081526020016000206000905560019350505050613252565b60009150505b92915050565b60007f01ffc9a7000000000000000000000000000000000000000000000000000000007bffffffffffffffffffffffffffffffffffffffffffffffffffffffff1916827bffffffffffffffffffffffffffffffffffffffffffffffffffffffff1916149050919050565b60006132d56132d084614369565b614344565b905080838252602082019050828560208602820111156132f457600080fd5b60005b85811015613324578161330a88826133d8565b8452602084019350602083019250506001810190506132f7565b5050509392505050565b600061334161333c84614395565b614344565b9050808382526020820190508285602086028201111561336057600080fd5b60005b85811015613390578161337688826134bf565b845260208401935060208301925050600181019050613363565b5050509392505050565b60006133ad6133a8846143c1565b614344565b9050828152602081018484840111156133c557600080fd5b6133d08482856145d0565b509392505050565b6000813590506133e781614e57565b92915050565b600082601f8301126133fe57600080fd5b813561340e8482602086016132c2565b91505092915050565b600082601f83011261342857600080fd5b813561343884826020860161332e565b91505092915050565b60008135905061345081614e6e565b92915050565b60008135905061346581614e85565b92915050565b60008135905061347a81614e9c565b92915050565b60008151905061348f81614e9c565b92915050565b600082601f8301126134a657600080fd5b81356134b684826020860161339a565b91505092915050565b6000813590506134ce81614eb3565b92915050565b600080604083850312156134e757600080fd5b60006134f5858286016133d8565b9250506020613506858286016133d8565b9150509250929050565b600080600080600060a0868803121561352857600080fd5b6000613536888289016133d8565b9550506020613547888289016133d8565b945050604086013567ffffffffffffffff81111561356457600080fd5b61357088828901613417565b935050606086013567ffffffffffffffff81111561358d57600080fd5b61359988828901613417565b925050608086013567ffffffffffffffff8111156135b657600080fd5b6135c288828901613495565b9150509295509295909350565b600080600080600060a086880312156135e757600080fd5b60006135f5888289016133d8565b9550506020613606888289016133d8565b9450506040613617888289016134bf565b9350506060613628888289016134bf565b925050608086013567ffffffffffffffff81111561364557600080fd5b61365188828901613495565b9150509295509295909350565b60008060006060848603121561367357600080fd5b6000613681868287016133d8565b935050602084013567ffffffffffffffff81111561369e57600080fd5b6136aa86828701613417565b925050604084013567ffffffffffffffff8111156136c757600080fd5b6136d386828701613417565b9150509250925092565b600080600080608085870312156136f357600080fd5b6000613701878288016133d8565b945050602085013567ffffffffffffffff81111561371e57600080fd5b61372a87828801613417565b935050604085013567ffffffffffffffff81111561374757600080fd5b61375387828801613417565b925050606085013567ffffffffffffffff81111561377057600080fd5b61377c87828801613495565b91505092959194509250565b6000806040838503121561379b57600080fd5b60006137a9858286016133d8565b92505060206137ba85828601613441565b9150509250929050565b600080604083850312156137d757600080fd5b60006137e5858286016133d8565b92505060206137f6858286016134bf565b9150509250929050565b60008060006060848603121561381557600080fd5b6000613823868287016133d8565b9350506020613834868287016134bf565b9250506040613845868287016134bf565b9150509250925092565b6000806000806080858703121561386557600080fd5b6000613873878288016133d8565b9450506020613884878288016134bf565b9350506040613895878288016134bf565b925050606085013567ffffffffffffffff8111156138b257600080fd5b6138be87828801613495565b91505092959194509250565b600080604083850312156138dd57600080fd5b600083013567ffffffffffffffff8111156138f757600080fd5b613903858286016133ed565b925050602083013567ffffffffffffffff81111561392057600080fd5b61392c85828601613417565b9150509250929050565b60006020828403121561394857600080fd5b600061395684828501613456565b91505092915050565b6000806040838503121561397257600080fd5b600061398085828601613456565b9250506020613991858286016133d8565b9150509250929050565b600080604083850312156139ae57600080fd5b60006139bc85828601613456565b92505060206139cd858286016134bf565b9150509250929050565b6000602082840312156139e957600080fd5b60006139f78482850161346b565b91505092915050565b600060208284031215613a1257600080fd5b6000613a2084828501613480565b91505092915050565b600060208284031215613a3b57600080fd5b6000613a49848285016134bf565b91505092915050565b6000613a5e8383613e9a565b60208301905092915050565b613a7381614552565b82525050565b6000613a8482614402565b613a8e8185614430565b9350613a99836143f2565b8060005b83811015613aca578151613ab18882613a52565b9750613abc83614423565b925050600181019050613a9d565b5085935050505092915050565b613ae081614564565b82525050565b613aef81614570565b82525050565b6000613b008261440d565b613b0a8185614441565b9350613b1a8185602086016145df565b613b2381614797565b840191505092915050565b6000613b3982614418565b613b438185614452565b9350613b538185602086016145df565b613b5c81614797565b840191505092915050565b6000613b7282614418565b613b7c8185614463565b9350613b8c8185602086016145df565b80840191505092915050565b6000613ba5603483614452565b9150613bb0826147b5565b604082019050919050565b6000613bc8602f83614452565b9150613bd382614804565b604082019050919050565b6000613beb602083614452565b9150613bf682614853565b602082019050919050565b6000613c0e602883614452565b9150613c198261487c565b604082019050919050565b6000613c31601483614452565b9150613c3c826148cb565b602082019050919050565b6000613c54602483614452565b9150613c5f826148f4565b604082019050919050565b6000613c77602c83614452565b9150613c8282614943565b604082019050919050565b6000613c9a602a83614452565b9150613ca582614992565b604082019050919050565b6000613cbd601083614452565b9150613cc8826149e1565b602082019050919050565b6000613ce0602583614452565b9150613ceb82614a0a565b604082019050919050565b6000613d03602383614452565b9150613d0e82614a59565b604082019050919050565b6000613d26603883614452565b9150613d3182614aa8565b604082019050919050565b6000613d49602a83614452565b9150613d5482614af7565b604082019050919050565b6000613d6c603b83614452565b9150613d7782614b46565b604082019050919050565b6000613d8f603983614452565b9150613d9a82614b95565b604082019050919050565b6000613db2601783614463565b9150613dbd82614be4565b601782019050919050565b6000613dd5602983614452565b9150613de082614c0d565b604082019050919050565b6000613df8602983614452565b9150613e0382614c5c565b604082019050919050565b6000613e1b602883614452565b9150613e2682614cab565b604082019050919050565b6000613e3e602183614452565b9150613e4982614cfa565b604082019050919050565b6000613e61601183614463565b9150613e6c82614d49565b601182019050919050565b6000613e84602f83614452565b9150613e8f82614d72565b604082019050919050565b613ea3816145c6565b82525050565b613eb2816145c6565b82525050565b6000613ec382613da5565b9150613ecf8285613b67565b9150613eda82613e54565b9150613ee68284613b67565b91508190509392505050565b6000602082019050613f076000830184613a6a565b92915050565b600060a082019050613f226000830188613a6a565b613f2f6020830187613a6a565b8181036040830152613f418186613a79565b90508181036060830152613f558185613a79565b90508181036080830152613f698184613af5565b90509695505050505050565b600060a082019050613f8a6000830188613a6a565b613f976020830187613a6a565b613fa46040830186613ea9565b613fb16060830185613ea9565b8181036080830152613fc38184613af5565b90509695505050505050565b60006020820190508181036000830152613fe98184613a79565b905092915050565b6000604082019050818103600083015261400b8185613a79565b9050818103602083015261401f8184613a79565b90509392505050565b600060208201905061403d6000830184613ad7565b92915050565b60006020820190506140586000830184613ae6565b92915050565b600060208201905081810360008301526140788184613b2e565b905092915050565b6000602082019050818103600083015261409981613b98565b9050919050565b600060208201905081810360008301526140b981613bbb565b9050919050565b600060208201905081810360008301526140d981613bde565b9050919050565b600060208201905081810360008301526140f981613c01565b9050919050565b6000602082019050818103600083015261411981613c24565b9050919050565b6000602082019050818103600083015261413981613c47565b9050919050565b6000602082019050818103600083015261415981613c6a565b9050919050565b6000602082019050818103600083015261417981613c8d565b9050919050565b6000602082019050818103600083015261419981613cb0565b9050919050565b600060208201905081810360008301526141b981613cd3565b9050919050565b600060208201905081810360008301526141d981613cf6565b9050919050565b600060208201905081810360008301526141f981613d19565b9050919050565b6000602082019050818103600083015261421981613d3c565b9050919050565b6000602082019050818103600083015261423981613d5f565b9050919050565b6000602082019050818103600083015261425981613d82565b9050919050565b6000602082019050818103600083015261427981613dc8565b9050919050565b6000602082019050818103600083015261429981613deb565b9050919050565b600060208201905081810360008301526142b981613e0e565b9050919050565b600060208201905081810360008301526142d981613e31565b9050919050565b600060208201905081810360008301526142f981613e77565b9050919050565b60006020820190506143156000830184613ea9565b92915050565b60006040820190506143306000830185613ea9565b61433d6020830184613ea9565b9392505050565b600061434e61435f565b905061435a828261466e565b919050565b6000604051905090565b600067ffffffffffffffff82111561438457614383614746565b5b602082029050602081019050919050565b600067ffffffffffffffff8211156143b0576143af614746565b5b602082029050602081019050919050565b600067ffffffffffffffff8211156143dc576143db614746565b5b6143e582614797565b9050602081019050919050565b6000819050602082019050919050565b600081519050919050565b600081519050919050565b600081519050919050565b6000602082019050919050565b600082825260208201905092915050565b600082825260208201905092915050565b600082825260208201905092915050565b600081905092915050565b6000614479826145c6565b9150614484836145c6565b9250827fffffffffffffffffffffffffffffffffffffffffffffffffffffffffffffffff038211156144b9576144b86146e8565b5b828201905092915050565b60006144cf826145c6565b91506144da836145c6565b9250817fffffffffffffffffffffffffffffffffffffffffffffffffffffffffffffffff0483118215151615614513576145126146e8565b5b828202905092915050565b6000614529826145c6565b9150614534836145c6565b925082821015614547576145466146e8565b5b828203905092915050565b600061455d826145a6565b9050919050565b60008115159050919050565b6000819050919050565b60007fffffffff0000000000000000000000000000000000000000000000000000000082169050919050565b600073ffffffffffffffffffffffffffffffffffffffff82169050919050565b6000819050919050565b82818337600083830152505050565b60005b838110156145fd5780820151818401526020810190506145e2565b8381111561460c576000848401525b50505050565b600061461d826145c6565b91506000821415614631576146306146e8565b5b600182039050919050565b6000600282049050600182168061465457607f821691505b6020821081141561466857614667614717565b5b50919050565b61467782614797565b810181811067ffffffffffffffff8211171561469657614695614746565b5b80604052505050565b60006146aa826145c6565b91507fffffffffffffffffffffffffffffffffffffffffffffffffffffffffffffffff8214156146dd576146dc6146e8565b5b600182019050919050565b7f4e487b7100000000000000000000000000000000000000000000000000000000600052601160045260246000fd5b7f4e487b7100000000000000000000000000000000000000000000000000000000600052602260045260246000fd5b7f4e487b7100000000000000000000000000000000000000000000000000000000600052604160045260246000fd5b600060033d11156147945760046000803e6147916000516147a8565b90505b90565b6000601f19601f8301169050919050565b60008160e01c9050919050565b7f455243313135353a207472616e7366657220746f206e6f6e204552433131353560008201527f526563656976657220696d706c656d656e746572000000000000000000000000602082015250565b7f455243313135353a2063616c6c6572206973206e6f7420746f6b656e206f776e60008201527f6572206e6f7220617070726f7665640000000000000000000000000000000000602082015250565b7f537472696e67733a20686578206c656e67746820696e73756666696369656e74600082015250565b7f455243313135353a204552433131353552656365697665722072656a6563746560008201527f6420746f6b656e73000000000000000000000000000000000000000000000000602082015250565b7f5061757361626c653a206e6f7420706175736564000000000000000000000000600082015250565b7f455243313135353a206275726e20616d6f756e7420657863656564732062616c60008201527f616e636500000000000000000000000000000000000000000000000000000000602082015250565b7f455243313135355061757361626c653a20746f6b656e207472616e736665722060008201527f7768696c65207061757365640000000000000000000000000000000000000000602082015250565b7f455243313135353a2061646472657373207a65726f206973206e6f742061207660008201527f616c6964206f776e657200000000000000000000000000000000000000000000602082015250565b7f5061757361626c653a2070617573656400000000000000000000000000000000600082015250565b7f455243313135353a207472616e7366657220746f20746865207a65726f20616460008201527f6472657373000000000000000000000000000000000000000000000000000000602082015250565b7f455243313135353a206275726e2066726f6d20746865207a65726f206164647260008201527f6573730000000000000000000000000000000000000000000000000000000000602082015250565b7f455243313135355072657365744d696e7465725061757365723a206d7573742060008201527f68617665206d696e74657220726f6c6520746f206d696e740000000000000000602082015250565b7f455243313135353a20696e73756666696369656e742062616c616e636520666f60008201527f72207472616e7366657200000000000000000000000000000000000000000000602082015250565b7f455243313135355072657365744d696e7465725061757365723a206d7573742060008201527f686176652070617573657220726f6c6520746f20756e70617573650000000000602082015250565b7f455243313135355072657365744d696e7465725061757365723a206d7573742060008201527f686176652070617573657220726f6c6520746f20706175736500000000000000602082015250565b7f416363657373436f6e74726f6c3a206163636f756e7420000000000000000000600082015250565b7f455243313135353a2073657474696e6720617070726f76616c2073746174757360008201527f20666f722073656c660000000000000000000000000000000000000000000000602082015250565b7f455243313135353a206163636f756e747320616e6420696473206c656e67746860008201527f206d69736d617463680000000000000000000000000000000000000000000000602082015250565b7f455243313135353a2069647320616e6420616d6f756e7473206c656e6774682060008201527f6d69736d61746368000000000000000000000000000000000000000000000000602082015250565b7f455243313135353a206d696e7420746f20746865207a65726f2061646472657360008201527f7300000000000000000000000000000000000000000000000000000000000000602082015250565b7f206973206d697373696e6720726f6c6520000000000000000000000000000000600082015250565b7f416363657373436f6e74726f6c3a2063616e206f6e6c792072656e6f756e636560008201527f20726f6c657320666f722073656c660000000000000000000000000000000000602082015250565b600060443d1015614dd157614e54565b614dd961435f565b60043d036004823e80513d602482011167ffffffffffffffff82111715614e01575050614e54565b808201805167ffffffffffffffff811115614e1f5750505050614e54565b80602083010160043d038501811115614e3c575050505050614e54565b614e4b8260200185018661466e565b82955050505050505b90565b614e6081614552565b8114614e6b57600080fd5b50565b614e7781614564565b8114614e8257600080fd5b50565b614e8e81614570565b8114614e9957600080fd5b50565b614ea58161457a565b8114614eb057600080fd5b50565b614ebc816145c6565b8114614ec757600080fd5b5056fea2646970667358221220768f187b6e2b7daa0a03a266ccf4d0eb59a8ba013cf1e8463cc43fca34982c7964736f6c6343000801003368747470733a2f2f6170692e6672616e6b2e686b2f6170692f6e66742f64656d6f2f313135352f6d617276656c2f7b69647d2e6a736f6e",
  "linkReferences": {},
  "deployedLinkReferences": {}
}